{
  "contractName": "Voting",
  "abi": [
    {
      "anonymous": false,
      "inputs": [
        {
          "indexed": false,
          "internalType": "uint256",
          "name": "pollId",
          "type": "uint256"
        }
      ],
      "name": "AddPoll",
      "type": "event"
    },
    {
      "anonymous": false,
      "inputs": [
        {
          "indexed": false,
          "internalType": "uint256",
          "name": "pollId",
          "type": "uint256"
        }
      ],
      "name": "ClosePoll",
      "type": "event"
    },
    {
      "anonymous": false,
      "inputs": [
        {
          "indexed": false,
          "internalType": "string",
          "name": "uuid",
          "type": "string"
        }
      ],
      "name": "GetPollById",
      "type": "event"
    },
    {
      "anonymous": false,
      "inputs": [
        {
          "indexed": false,
          "internalType": "uint256",
          "name": "pollId",
          "type": "uint256"
        },
        {
          "indexed": false,
          "internalType": "uint256",
          "name": "optionId",
          "type": "uint256"
        }
      ],
      "name": "Vote",
      "type": "event"
    },
    {
      "inputs": [
        {
          "internalType": "string",
          "name": "title",
          "type": "string"
        },
        {
          "internalType": "string",
          "name": "uuid",
          "type": "string"
        },
        {
          "internalType": "string",
          "name": "votingType",
          "type": "string"
        },
        {
          "internalType": "string[]",
          "name": "options",
          "type": "string[]"
        }
      ],
      "name": "createPoll",
      "outputs": [],
      "stateMutability": "nonpayable",
      "type": "function"
    },
    {
      "inputs": [
        {
          "internalType": "uint256",
          "name": "pollId",
          "type": "uint256"
        },
        {
          "internalType": "uint256",
          "name": "optionId",
          "type": "uint256"
        }
      ],
      "name": "vote",
      "outputs": [],
      "stateMutability": "nonpayable",
      "type": "function"
    },
    {
      "inputs": [
        {
          "internalType": "string",
          "name": "uuid",
          "type": "string"
        }
      ],
      "name": "getPollById",
      "outputs": [
        {
          "components": [
            {
              "internalType": "address",
              "name": "creator",
              "type": "address"
            },
            {
              "internalType": "uint256",
              "name": "id",
              "type": "uint256"
            },
            {
              "internalType": "string",
              "name": "uuid",
              "type": "string"
            },
            {
              "internalType": "string",
              "name": "title",
              "type": "string"
            },
            {
              "internalType": "string",
              "name": "votingType",
              "type": "string"
            },
            {
              "internalType": "string[]",
              "name": "options",
              "type": "string[]"
            },
            {
              "internalType": "address[]",
              "name": "option1Votes",
              "type": "address[]"
            },
            {
              "internalType": "address[]",
              "name": "option2Votes",
              "type": "address[]"
            },
            {
              "internalType": "address[]",
              "name": "option3Votes",
              "type": "address[]"
            },
            {
              "internalType": "address[]",
              "name": "option4Votes",
              "type": "address[]"
            },
            {
              "internalType": "address[]",
              "name": "allVotedMembers",
              "type": "address[]"
            },
            {
              "internalType": "bool",
              "name": "isClosed",
              "type": "bool"
            }
          ],
          "internalType": "struct Voting.Poll",
          "name": "",
          "type": "tuple"
        }
      ],
      "stateMutability": "view",
      "type": "function",
      "constant": true
    },
    {
      "inputs": [
        {
          "internalType": "uint256",
          "name": "pollId",
          "type": "uint256"
        }
      ],
      "name": "deleteTask",
      "outputs": [],
      "stateMutability": "nonpayable",
      "type": "function"
    },
    {
      "inputs": [],
      "name": "getMyPolls",
      "outputs": [
        {
          "components": [
            {
              "internalType": "address",
              "name": "creator",
              "type": "address"
            },
            {
              "internalType": "uint256",
              "name": "id",
              "type": "uint256"
            },
            {
              "internalType": "string",
              "name": "uuid",
              "type": "string"
            },
            {
              "internalType": "string",
              "name": "title",
              "type": "string"
            },
            {
              "internalType": "string",
              "name": "votingType",
              "type": "string"
            },
            {
              "internalType": "string[]",
              "name": "options",
              "type": "string[]"
            },
            {
              "internalType": "address[]",
              "name": "option1Votes",
              "type": "address[]"
            },
            {
              "internalType": "address[]",
              "name": "option2Votes",
              "type": "address[]"
            },
            {
              "internalType": "address[]",
              "name": "option3Votes",
              "type": "address[]"
            },
            {
              "internalType": "address[]",
              "name": "option4Votes",
              "type": "address[]"
            },
            {
              "internalType": "address[]",
              "name": "allVotedMembers",
              "type": "address[]"
            },
            {
              "internalType": "bool",
              "name": "isClosed",
              "type": "bool"
            }
          ],
          "internalType": "struct Voting.Poll[]",
          "name": "",
          "type": "tuple[]"
        }
      ],
      "stateMutability": "view",
      "type": "function",
      "constant": true
    },
    {
      "inputs": [],
      "name": "getAllPolls",
      "outputs": [
        {
          "components": [
            {
              "internalType": "address",
              "name": "creator",
              "type": "address"
            },
            {
              "internalType": "uint256",
              "name": "id",
              "type": "uint256"
            },
            {
              "internalType": "string",
              "name": "uuid",
              "type": "string"
            },
            {
              "internalType": "string",
              "name": "title",
              "type": "string"
            },
            {
              "internalType": "string",
              "name": "votingType",
              "type": "string"
            },
            {
              "internalType": "string[]",
              "name": "options",
              "type": "string[]"
            },
            {
              "internalType": "address[]",
              "name": "option1Votes",
              "type": "address[]"
            },
            {
              "internalType": "address[]",
              "name": "option2Votes",
              "type": "address[]"
            },
            {
              "internalType": "address[]",
              "name": "option3Votes",
              "type": "address[]"
            },
            {
              "internalType": "address[]",
              "name": "option4Votes",
              "type": "address[]"
            },
            {
              "internalType": "address[]",
              "name": "allVotedMembers",
              "type": "address[]"
            },
            {
              "internalType": "bool",
              "name": "isClosed",
              "type": "bool"
            }
          ],
          "internalType": "struct Voting.Poll[]",
          "name": "",
          "type": "tuple[]"
        }
      ],
      "stateMutability": "view",
      "type": "function",
      "constant": true
    }
  ],
  "bytecode": "0x608060405234801561001057600080fd5b50612dda806100206000396000f3fe608060405234801561001057600080fd5b50600436106100625760003560e01c8063170b5add1461006757806332b633fa14610085578063560f3192146100a3578063b384abef146100bf578063b82d8995146100db578063c6975219146100f7575b600080fd5b61006f610127565b60405161007c91906123ab565b60405180910390f35b61008d610937565b60405161009a91906123ab565b60405180910390f35b6100bd60048036038101906100b8919061240d565b610f67565b005b6100d960048036038101906100d4919061243a565b611046565b005b6100f560048036038101906100f09190612695565b61143c565b005b610111600480360381019061010c919061276c565b6116d5565b60405161011e91906128f1565b60405180910390f35b60606000808054905067ffffffffffffffff81111561014957610148612484565b5b60405190808252806020026020018201604052801561018257816020015b61016f611d5a565b8152602001906001900390816101675790505b5090506000805b60008054905081101561087d573373ffffffffffffffffffffffffffffffffffffffff166001600083815260200190815260200160002060009054906101000a900473ffffffffffffffffffffffffffffffffffffffff1673ffffffffffffffffffffffffffffffffffffffff1614801561023a5750600015156000828154811061021757610216612913565b5b90600052602060002090600c0201600b0160009054906101000a900460ff161515145b1561086a576000818154811061025357610252612913565b5b90600052602060002090600c0201604051806101800160405290816000820160009054906101000a900473ffffffffffffffffffffffffffffffffffffffff1673ffffffffffffffffffffffffffffffffffffffff1673ffffffffffffffffffffffffffffffffffffffff168152602001600182015481526020016002820180546102dd90612971565b80601f016020809104026020016040519081016040528092919081815260200182805461030990612971565b80156103565780601f1061032b57610100808354040283529160200191610356565b820191906000526020600020905b81548152906001019060200180831161033957829003601f168201915b5050505050815260200160038201805461036f90612971565b80601f016020809104026020016040519081016040528092919081815260200182805461039b90612971565b80156103e85780601f106103bd576101008083540402835291602001916103e8565b820191906000526020600020905b8154815290600101906020018083116103cb57829003601f168201915b5050505050815260200160048201805461040190612971565b80601f016020809104026020016040519081016040528092919081815260200182805461042d90612971565b801561047a5780601f1061044f5761010080835404028352916020019161047a565b820191906000526020600020905b81548152906001019060200180831161045d57829003601f168201915b5050505050815260200160058201805480602002602001604051908101604052809291908181526020016000905b828210156105545783829060005260206000200180546104c790612971565b80601f01602080910402602001604051908101604052809291908181526020018280546104f390612971565b80156105405780601f1061051557610100808354040283529160200191610540565b820191906000526020600020905b81548152906001019060200180831161052357829003601f168201915b5050505050815260200190600101906104a8565b505050508152602001600682018054806020026020016040519081016040528092919081815260200182805480156105e157602002820191906000526020600020905b8160009054906101000a900473ffffffffffffffffffffffffffffffffffffffff1673ffffffffffffffffffffffffffffffffffffffff1681526020019060010190808311610597575b505050505081526020016007820180548060200260200160405190810160405280929190818152602001828054801561066f57602002820191906000526020600020905b8160009054906101000a900473ffffffffffffffffffffffffffffffffffffffff1673ffffffffffffffffffffffffffffffffffffffff1681526020019060010190808311610625575b50505050508152602001600882018054806020026020016040519081016040528092919081815260200182805480156106fd57602002820191906000526020600020905b8160009054906101000a900473ffffffffffffffffffffffffffffffffffffffff1673ffffffffffffffffffffffffffffffffffffffff16815260200190600101908083116106b3575b505050505081526020016009820180548060200260200160405190810160405280929190818152602001828054801561078b57602002820191906000526020600020905b8160009054906101000a900473ffffffffffffffffffffffffffffffffffffffff1673ffffffffffffffffffffffffffffffffffffffff1681526020019060010190808311610741575b50505050508152602001600a820180548060200260200160405190810160405280929190818152602001828054801561081957602002820191906000526020600020905b8160009054906101000a900473ffffffffffffffffffffffffffffffffffffffff1673ffffffffffffffffffffffffffffffffffffffff16815260200190600101908083116107cf575b50505050508152602001600b820160009054906101000a900460ff1615151515815250508383815181106108505761084f612913565b5b60200260200101819052508180610866906129d1565b9250505b8080610875906129d1565b915050610189565b5060008167ffffffffffffffff81111561089a57610899612484565b5b6040519080825280602002602001820160405280156108d357816020015b6108c0611d5a565b8152602001906001900390816108b85790505b50905060005b8281101561092d578381815181106108f4576108f3612913565b5b602002602001015182828151811061090f5761090e612913565b5b60200260200101819052508080610925906129d1565b9150506108d9565b5080935050505090565b60606000805480602002602001604051908101604052809291908181526020016000905b82821015610f5e57838290600052602060002090600c0201604051806101800160405290816000820160009054906101000a900473ffffffffffffffffffffffffffffffffffffffff1673ffffffffffffffffffffffffffffffffffffffff1673ffffffffffffffffffffffffffffffffffffffff168152602001600182015481526020016002820180546109ef90612971565b80601f0160208091040260200160405190810160405280929190818152602001828054610a1b90612971565b8015610a685780601f10610a3d57610100808354040283529160200191610a68565b820191906000526020600020905b815481529060010190602001808311610a4b57829003601f168201915b50505050508152602001600382018054610a8190612971565b80601f0160208091040260200160405190810160405280929190818152602001828054610aad90612971565b8015610afa5780601f10610acf57610100808354040283529160200191610afa565b820191906000526020600020905b815481529060010190602001808311610add57829003601f168201915b50505050508152602001600482018054610b1390612971565b80601f0160208091040260200160405190810160405280929190818152602001828054610b3f90612971565b8015610b8c5780601f10610b6157610100808354040283529160200191610b8c565b820191906000526020600020905b815481529060010190602001808311610b6f57829003601f168201915b5050505050815260200160058201805480602002602001604051908101604052809291908181526020016000905b82821015610c66578382906000526020600020018054610bd990612971565b80601f0160208091040260200160405190810160405280929190818152602001828054610c0590612971565b8015610c525780601f10610c2757610100808354040283529160200191610c52565b820191906000526020600020905b815481529060010190602001808311610c3557829003601f168201915b505050505081526020019060010190610bba565b50505050815260200160068201805480602002602001604051908101604052809291908181526020018280548015610cf357602002820191906000526020600020905b8160009054906101000a900473ffffffffffffffffffffffffffffffffffffffff1673ffffffffffffffffffffffffffffffffffffffff1681526020019060010190808311610ca9575b5050505050815260200160078201805480602002602001604051908101604052809291908181526020018280548015610d8157602002820191906000526020600020905b8160009054906101000a900473ffffffffffffffffffffffffffffffffffffffff1673ffffffffffffffffffffffffffffffffffffffff1681526020019060010190808311610d37575b5050505050815260200160088201805480602002602001604051908101604052809291908181526020018280548015610e0f57602002820191906000526020600020905b8160009054906101000a900473ffffffffffffffffffffffffffffffffffffffff1673ffffffffffffffffffffffffffffffffffffffff1681526020019060010190808311610dc5575b5050505050815260200160098201805480602002602001604051908101604052809291908181526020018280548015610e9d57602002820191906000526020600020905b8160009054906101000a900473ffffffffffffffffffffffffffffffffffffffff1673ffffffffffffffffffffffffffffffffffffffff1681526020019060010190808311610e53575b50505050508152602001600a8201805480602002602001604051908101604052809291908181526020018280548015610f2b57602002820191906000526020600020905b8160009054906101000a900473ffffffffffffffffffffffffffffffffffffffff1673ffffffffffffffffffffffffffffffffffffffff1681526020019060010190808311610ee1575b50505050508152602001600b820160009054906101000a900460ff1615151515815250508152602001906001019061095b565b50505050905090565b3373ffffffffffffffffffffffffffffffffffffffff166001600083815260200190815260200160002060009054906101000a900473ffffffffffffffffffffffffffffffffffffffff1673ffffffffffffffffffffffffffffffffffffffff160361104357600160008281548110610fe357610fe2612913565b5b90600052602060002090600c0201600b0160006101000a81548160ff0219169083151502179055507f60b3902f6beb74ff9480492518033590ad2fd968a54134534ff9af35f804b8f28160405161103a9190612a28565b60405180910390a15b50565b6000805b6000848154811061105e5761105d612913565b5b90600052602060002090600c0201600a0180549050811015611126573373ffffffffffffffffffffffffffffffffffffffff16600085815481106110a5576110a4612913565b5b90600052602060002090600c0201600a0182815481106110c8576110c7612913565b5b9060005260206000200160009054906101000a900473ffffffffffffffffffffffffffffffffffffffff1673ffffffffffffffffffffffffffffffffffffffff160361111357600191505b808061111e906129d1565b91505061104a565b50806113fe57600182036111bf576000838154811061114857611147612913565b5b90600052602060002090600c0201600601339080600181540180825580915050600190039060005260206000200160009091909190916101000a81548173ffffffffffffffffffffffffffffffffffffffff021916908373ffffffffffffffffffffffffffffffffffffffff160217905550611377565b6002820361125257600083815481106111db576111da612913565b5b90600052602060002090600c0201600701339080600181540180825580915050600190039060005260206000200160009091909190916101000a81548173ffffffffffffffffffffffffffffffffffffffff021916908373ffffffffffffffffffffffffffffffffffffffff160217905550611376565b600382036112e5576000838154811061126e5761126d612913565b5b90600052602060002090600c0201600801339080600181540180825580915050600190039060005260206000200160009091909190916101000a81548173ffffffffffffffffffffffffffffffffffffffff021916908373ffffffffffffffffffffffffffffffffffffffff160217905550611375565b60048203611374576000838154811061130157611300612913565b5b90600052602060002090600c0201600901339080600181540180825580915050600190039060005260206000200160009091909190916101000a81548173ffffffffffffffffffffffffffffffffffffffff021916908373ffffffffffffffffffffffffffffffffffffffff1602179055505b5b5b5b6000838154811061138b5761138a612913565b5b90600052602060002090600c0201600a01339080600181540180825580915050600190039060005260206000200160009091909190916101000a81548173ffffffffffffffffffffffffffffffffffffffff021916908373ffffffffffffffffffffffffffffffffffffffff1602179055505b7f33952ef907843fd2ddd118a92dd935debf65b72965a557a364ea08deffca032f838360405161142f929190612a43565b60405180910390a1505050565b600080805490509050606060006040518061018001604052803373ffffffffffffffffffffffffffffffffffffffff1681526020018481526020018781526020018881526020018681526020018581526020018381526020018381526020018381526020018381526020018381526020016000151581525090806001815401808255809150506001900390600052602060002090600c020160009091909190915060008201518160000160006101000a81548173ffffffffffffffffffffffffffffffffffffffff021916908373ffffffffffffffffffffffffffffffffffffffff1602179055506020820151816001015560408201518160020190816115439190612c18565b5060608201518160030190816115599190612c18565b50608082015181600401908161156f9190612c18565b5060a082015181600501908051906020019061158c929190611dd3565b5060c08201518160060190805190602001906115a9929190611e2c565b5060e08201518160070190805190602001906115c6929190611e2c565b506101008201518160080190805190602001906115e4929190611e2c565b50610120820151816009019080519060200190611602929190611e2c565b5061014082015181600a019080519060200190611620929190611e2c565b5061016082015181600b0160006101000a81548160ff0219169083151502179055505050336001600084815260200190815260200160002060006101000a81548173ffffffffffffffffffffffffffffffffffffffff021916908373ffffffffffffffffffffffffffffffffffffffff1602179055507fbac6a34cfe165971ec3d83eb42c6b68fa63f3aed28f4199c456bc1a7adcdad48826040516116c59190612a28565b60405180910390a1505050505050565b6116dd611d5a565b6116e5611d5a565b60005b600080549050811015611d505783805190602001206000828154811061171157611710612913565b5b90600052602060002090600c020160020160405161172f9190612d8d565b604051809103902003611d3d57600081815481106117505761174f612913565b5b90600052602060002090600c0201604051806101800160405290816000820160009054906101000a900473ffffffffffffffffffffffffffffffffffffffff1673ffffffffffffffffffffffffffffffffffffffff1673ffffffffffffffffffffffffffffffffffffffff168152602001600182015481526020016002820180546117da90612971565b80601f016020809104026020016040519081016040528092919081815260200182805461180690612971565b80156118535780601f1061182857610100808354040283529160200191611853565b820191906000526020600020905b81548152906001019060200180831161183657829003601f168201915b5050505050815260200160038201805461186c90612971565b80601f016020809104026020016040519081016040528092919081815260200182805461189890612971565b80156118e55780601f106118ba576101008083540402835291602001916118e5565b820191906000526020600020905b8154815290600101906020018083116118c857829003601f168201915b505050505081526020016004820180546118fe90612971565b80601f016020809104026020016040519081016040528092919081815260200182805461192a90612971565b80156119775780601f1061194c57610100808354040283529160200191611977565b820191906000526020600020905b81548152906001019060200180831161195a57829003601f168201915b5050505050815260200160058201805480602002602001604051908101604052809291908181526020016000905b82821015611a515783829060005260206000200180546119c490612971565b80601f01602080910402602001604051908101604052809291908181526020018280546119f090612971565b8015611a3d5780601f10611a1257610100808354040283529160200191611a3d565b820191906000526020600020905b815481529060010190602001808311611a2057829003601f168201915b5050505050815260200190600101906119a5565b50505050815260200160068201805480602002602001604051908101604052809291908181526020018280548015611ade57602002820191906000526020600020905b8160009054906101000a900473ffffffffffffffffffffffffffffffffffffffff1673ffffffffffffffffffffffffffffffffffffffff1681526020019060010190808311611a94575b5050505050815260200160078201805480602002602001604051908101604052809291908181526020018280548015611b6c57602002820191906000526020600020905b8160009054906101000a900473ffffffffffffffffffffffffffffffffffffffff1673ffffffffffffffffffffffffffffffffffffffff1681526020019060010190808311611b22575b5050505050815260200160088201805480602002602001604051908101604052809291908181526020018280548015611bfa57602002820191906000526020600020905b8160009054906101000a900473ffffffffffffffffffffffffffffffffffffffff1673ffffffffffffffffffffffffffffffffffffffff1681526020019060010190808311611bb0575b5050505050815260200160098201805480602002602001604051908101604052809291908181526020018280548015611c8857602002820191906000526020600020905b8160009054906101000a900473ffffffffffffffffffffffffffffffffffffffff1673ffffffffffffffffffffffffffffffffffffffff1681526020019060010190808311611c3e575b50505050508152602001600a8201805480602002602001604051908101604052809291908181526020018280548015611d1657602002820191906000526020600020905b8160009054906101000a900473ffffffffffffffffffffffffffffffffffffffff1673ffffffffffffffffffffffffffffffffffffffff1681526020019060010190808311611ccc575b50505050508152602001600b820160009054906101000a900460ff16151515158152505091505b8080611d48906129d1565b9150506116e8565b5080915050919050565b604051806101800160405280600073ffffffffffffffffffffffffffffffffffffffff168152602001600081526020016060815260200160608152602001606081526020016060815260200160608152602001606081526020016060815260200160608152602001606081526020016000151581525090565b828054828255906000526020600020908101928215611e1b579160200282015b82811115611e1a578251829081611e0a9190612c18565b5091602001919060010190611df3565b5b509050611e289190611eb6565b5090565b828054828255906000526020600020908101928215611ea5579160200282015b82811115611ea45782518260006101000a81548173ffffffffffffffffffffffffffffffffffffffff021916908373ffffffffffffffffffffffffffffffffffffffff16021790555091602001919060010190611e4c565b5b509050611eb29190611eda565b5090565b5b80821115611ed65760008181611ecd9190611ef7565b50600101611eb7565b5090565b5b80821115611ef3576000816000905550600101611edb565b5090565b508054611f0390612971565b6000825580601f10611f155750611f34565b601f016020900490600052602060002090810190611f339190611eda565b5b50565b600081519050919050565b600082825260208201905092915050565b6000819050602082019050919050565b600073ffffffffffffffffffffffffffffffffffffffff82169050919050565b6000611f8e82611f63565b9050919050565b611f9e81611f83565b82525050565b6000819050919050565b611fb781611fa4565b82525050565b600081519050919050565b600082825260208201905092915050565b60005b83811015611ff7578082015181840152602081019050611fdc565b60008484015250505050565b6000601f19601f8301169050919050565b600061201f82611fbd565b6120298185611fc8565b9350612039818560208601611fd9565b61204281612003565b840191505092915050565b600081519050919050565b600082825260208201905092915050565b6000819050602082019050919050565b60006120858383612014565b905092915050565b6000602082019050919050565b60006120a58261204d565b6120af8185612058565b9350836020820285016120c185612069565b8060005b858110156120fd57848403895281516120de8582612079565b94506120e98361208d565b925060208a019950506001810190506120c5565b50829750879550505050505092915050565b600081519050919050565b600082825260208201905092915050565b6000819050602082019050919050565b60006121478383611f95565b60208301905092915050565b6000602082019050919050565b600061216b8261210f565b612175818561211a565b93506121808361212b565b8060005b838110156121b1578151612198888261213b565b97506121a383612153565b925050600181019050612184565b5085935050505092915050565b60008115159050919050565b6121d3816121be565b82525050565b6000610180830160008301516121f26000860182611f95565b5060208301516122056020860182611fae565b506040830151848203604086015261221d8282612014565b915050606083015184820360608601526122378282612014565b915050608083015184820360808601526122518282612014565b91505060a083015184820360a086015261226b828261209a565b91505060c083015184820360c08601526122858282612160565b91505060e083015184820360e086015261229f8282612160565b9150506101008301518482036101008601526122bb8282612160565b9150506101208301518482036101208601526122d78282612160565b9150506101408301518482036101408601526122f38282612160565b91505061016083015161230a6101608601826121ca565b508091505092915050565b600061232183836121d9565b905092915050565b6000602082019050919050565b600061234182611f37565b61234b8185611f42565b93508360208202850161235d85611f53565b8060005b85811015612399578484038952815161237a8582612315565b945061238583612329565b925060208a01995050600181019050612361565b50829750879550505050505092915050565b600060208201905081810360008301526123c58184612336565b905092915050565b6000604051905090565b600080fd5b600080fd5b6123ea81611fa4565b81146123f557600080fd5b50565b600081359050612407816123e1565b92915050565b600060208284031215612423576124226123d7565b5b6000612431848285016123f8565b91505092915050565b60008060408385031215612451576124506123d7565b5b600061245f858286016123f8565b9250506020612470858286016123f8565b9150509250929050565b600080fd5b600080fd5b7f4e487b7100000000000000000000000000000000000000000000000000000000600052604160045260246000fd5b6124bc82612003565b810181811067ffffffffffffffff821117156124db576124da612484565b5b80604052505050565b60006124ee6123cd565b90506124fa82826124b3565b919050565b600067ffffffffffffffff82111561251a57612519612484565b5b61252382612003565b9050602081019050919050565b82818337600083830152505050565b600061255261254d846124ff565b6124e4565b90508281526020810184848401111561256e5761256d61247f565b5b612579848285612530565b509392505050565b600082601f8301126125965761259561247a565b5b81356125a684826020860161253f565b91505092915050565b600067ffffffffffffffff8211156125ca576125c9612484565b5b602082029050602081019050919050565b600080fd5b60006125f36125ee846125af565b6124e4565b90508083825260208201905060208402830185811115612616576126156125db565b5b835b8181101561265d57803567ffffffffffffffff81111561263b5761263a61247a565b5b8086016126488982612581565b85526020850194505050602081019050612618565b5050509392505050565b600082601f83011261267c5761267b61247a565b5b813561268c8482602086016125e0565b91505092915050565b600080600080608085870312156126af576126ae6123d7565b5b600085013567ffffffffffffffff8111156126cd576126cc6123dc565b5b6126d987828801612581565b945050602085013567ffffffffffffffff8111156126fa576126f96123dc565b5b61270687828801612581565b935050604085013567ffffffffffffffff811115612727576127266123dc565b5b61273387828801612581565b925050606085013567ffffffffffffffff811115612754576127536123dc565b5b61276087828801612667565b91505092959194509250565b600060208284031215612782576127816123d7565b5b600082013567ffffffffffffffff8111156127a05761279f6123dc565b5b6127ac84828501612581565b91505092915050565b6000610180830160008301516127ce6000860182611f95565b5060208301516127e16020860182611fae565b50604083015184820360408601526127f98282612014565b915050606083015184820360608601526128138282612014565b9150506080830151848203608086015261282d8282612014565b91505060a083015184820360a0860152612847828261209a565b91505060c083015184820360c08601526128618282612160565b91505060e083015184820360e086015261287b8282612160565b9150506101008301518482036101008601526128978282612160565b9150506101208301518482036101208601526128b38282612160565b9150506101408301518482036101408601526128cf8282612160565b9150506101608301516128e66101608601826121ca565b508091505092915050565b6000602082019050818103600083015261290b81846127b5565b905092915050565b7f4e487b7100000000000000000000000000000000000000000000000000000000600052603260045260246000fd5b7f4e487b7100000000000000000000000000000000000000000000000000000000600052602260045260246000fd5b6000600282049050600182168061298957607f821691505b60208210810361299c5761299b612942565b5b50919050565b7f4e487b7100000000000000000000000000000000000000000000000000000000600052601160045260246000fd5b60006129dc82611fa4565b91507fffffffffffffffffffffffffffffffffffffffffffffffffffffffffffffffff8203612a0e57612a0d6129a2565b5b600182019050919050565b612a2281611fa4565b82525050565b6000602082019050612a3d6000830184612a19565b92915050565b6000604082019050612a586000830185612a19565b612a656020830184612a19565b9392505050565b60008190508160005260206000209050919050565b60006020601f8301049050919050565b600082821b905092915050565b600060088302612ace7fffffffffffffffffffffffffffffffffffffffffffffffffffffffffffffffff82612a91565b612ad88683612a91565b95508019841693508086168417925050509392505050565b6000819050919050565b6000612b15612b10612b0b84611fa4565b612af0565b611fa4565b9050919050565b6000819050919050565b612b2f83612afa565b612b43612b3b82612b1c565b848454612a9e565b825550505050565b600090565b612b58612b4b565b612b63818484612b26565b505050565b5b81811015612b8757612b7c600082612b50565b600181019050612b69565b5050565b601f821115612bcc57612b9d81612a6c565b612ba684612a81565b81016020851015612bb5578190505b612bc9612bc185612a81565b830182612b68565b50505b505050565b600082821c905092915050565b6000612bef60001984600802612bd1565b1980831691505092915050565b6000612c088383612bde565b9150826002028217905092915050565b612c2182611fbd565b67ffffffffffffffff811115612c3a57612c39612484565b5b612c448254612971565b612c4f828285612b8b565b600060209050601f831160018114612c825760008415612c70578287015190505b612c7a8582612bfc565b865550612ce2565b601f198416612c9086612a6c565b60005b82811015612cb857848901518255600182019150602085019450602081019050612c93565b86831015612cd55784890151612cd1601f891682612bde565b8355505b6001600288020188555050505b505050505050565b600081905092915050565b60008190508160005260206000209050919050565b60008154612d1781612971565b612d218186612cea565b94506001821660008114612d3c5760018114612d5157612d84565b60ff1983168652811515820286019350612d84565b612d5a85612cf5565b60005b83811015612d7c57815481890152600182019150602081019050612d5d565b838801955050505b50505092915050565b6000612d998284612d0a565b91508190509291505056fea2646970667358221220b8aa2db91ad83e122261afbed31bd4adf7ef939ace29f57a55c9b84131baa76a64736f6c63430008110033",
  "immutableReferences": {},
  "source": "// SPDX-License-Identifier: MIT\npragma solidity ^0.8.4;\n\ncontract Voting {\n    event AddPoll(uint256 pollId);\n    event Vote(uint256 pollId, uint256 optionId);\n    event GetPollById(string uuid);\n    event ClosePoll(uint256 pollId);\n\n    struct Poll {\n        address creator;\n        uint256 id;\n        string uuid;\n        string title;\n        string votingType;\n        string[] options;\n        address[] option1Votes;\n        address[] option2Votes;\n        address[] option3Votes;\n        address[] option4Votes;\n        address[] allVotedMembers;\n        bool isClosed;\n    }\n\n    Poll[] private polls;\n\n    mapping(uint256 => address) private pollToOwner;\n\n    function createPoll(\n        string memory title,\n        string memory uuid,\n        string memory votingType,\n        string[] memory options\n    ) external {\n        uint256 pollId = polls.length;\n\n        address[] memory emptyAddress;\n\n        polls.push(\n            Poll(\n                msg.sender,\n                pollId,\n                uuid,\n                title,\n                votingType,\n                options,\n                emptyAddress,\n                emptyAddress,\n                emptyAddress,\n                emptyAddress,\n                emptyAddress,\n                false\n            )\n        );\n\n        pollToOwner[pollId] = msg.sender;\n        emit AddPoll(pollId);\n    }\n\n    function vote(uint256 pollId, uint256 optionId) external {\n        bool isVoted = false;\n\n        for (uint256 i = 0; i < polls[pollId].allVotedMembers.length; i++) {\n            if (polls[pollId].allVotedMembers[i] == msg.sender) {\n                isVoted = true;\n            }\n        }\n\n        if (!isVoted) {\n            if (optionId == 1) {\n                polls[pollId].option1Votes.push(msg.sender);\n            } else if (optionId == 2) {\n                polls[pollId].option2Votes.push(msg.sender);\n            } else if (optionId == 3) {\n                polls[pollId].option3Votes.push(msg.sender);\n            } else if (optionId == 4) {\n                polls[pollId].option4Votes.push(msg.sender);\n            }\n\n            polls[pollId].allVotedMembers.push(msg.sender);\n        }\n\n        emit Vote(pollId, optionId);\n    }\n\n    function getPollById(string memory uuid)\n        external\n        view\n        returns (Poll memory)\n    {\n        Poll memory result;\n\n        for (uint256 i = 0; i < polls.length; i++) {\n            if (keccak256(bytes(polls[i].uuid)) == keccak256(bytes(uuid))) {\n                result = polls[i];\n            }\n        }\n\n        return result;\n    }\n\n    function deleteTask(uint256 pollId) external {\n        if (pollToOwner[pollId] == msg.sender) {\n            polls[pollId].isClosed = true;\n            emit ClosePoll(pollId);\n        }\n    }\n\n    function getMyPolls() external view returns (Poll[] memory) {\n        Poll[] memory temporary = new Poll[](polls.length);\n        uint256 counter = 0;\n\n        for (uint256 i = 0; i < polls.length; i++) {\n            if (pollToOwner[i] == msg.sender && polls[i].isClosed == false) {\n                temporary[counter] = polls[i];\n                counter++;\n            }\n        }\n\n        Poll[] memory result = new Poll[](counter);\n        for (uint256 i = 0; i < counter; i++) {\n            result[i] = temporary[i];\n        }\n\n        return result;\n    }\n\n    function getAllPolls() external view returns (Poll[] memory) {\n        return polls;\n    }\n}\n",
  "sourcePath": "C:\\Users\\cocsa\\OneDrive\\Desktop\\Dev Folder\\Blockchain\\online_voting_poll\\contracts\\Voting.sol",
  "compiler": {
    "name": "solc",
    "version": "0.8.17+commit.8df45f5f.Emscripten.clang"
  },
  "schemaVersion": "3.4.9",
  "updatedAt": "2022-10-10T13:41:51.833Z",
  "networkType": "ethereum",
  "devdoc": {
    "kind": "dev",
    "methods": {},
    "version": 1
  },
  "userdoc": {
    "kind": "user",
    "methods": {},
    "version": 1
  }
}